:100000000C9482060C94BA060C94BA060C94BA06A8
:100010000C94BA060C94BA060C94BA060C94BA0660
:100020000C94BA060C94BA060C94882D0C945C2E91
:100030000C94AD230C94BA060C94BA060C94BA0630
:100040000C94BA060C94BA060C94BA060C94BA0630
:100050000C94BA060C9434240C94BA060C94BA0688
:100060000C94BA060C94BA060C94BA060C94BA0610
:100070000C94BA060C94BA060C94BA060C94BA0600
:100080000C94BA060C94BA060C94BA060C94BA06F0
:100090000C94BA060C94BA060C94BA060C94BA06E0
:1000A0000C94BA060C94BA060C94BA06000014001C
:1000B0001A000800150017001C0018000C001200A0
:1000C00013000000000000000400160007000900F3
:1000D0000A000B000D000E000F00330000000000AE
:1000E00000001D001B000600190005001100100093
:1000F000360037003800000000000000000000005B
:1001000029412C6100002B62000028420000000001
:100110000000000000005400550056005700000089
:100120000000240025002600270000000000000039
:100130000000085504550155000067002100220009
:100140002300630000000000000000000000000029
:100150000000000000001E001F00200085000000BD
:10016000000000000000000001002C00000002510F
:100170000000035100000000000000000000290002
:1001800035022F00300023022D02360238003702DC
:100190002A00000000000000390035002602270276
:1001A00021022E002F023002340034020000000031
:1001B0000000E3001E021F0220022202240231007E
:1001C00031020000000000000000000000000000FC
:1001D0000451055100000100000001000000000072
:1001E000000000000000000000002B062B040000AF
:1001F00000004A004D000000000000000000000068
:10020000000000002B0A2B08000050005100520093
:100210004F000000000000000000E10000000000AE
:1002200000000000000000000000000000000000CE
:1002300000000000000000000000E00000000000DE
:1002400000000100000000000000000000000000AD
:10025000AA00A800A90000000000420043004400DA
:1002600045000000000000000000AC00AE00AB0044
:10027000000000003E003F00400041000000000080
:1002800000000000000000000000000000003A0034
:100290003B003C003D0000000000000000000000AA
:1002A000010000000000000000000000000000004D
:1002B00000000000000014001A00080015001700DC
:1002C0001C0018000C0012001300000000000000C9
:1002D00004001600070009000A000B000D000E00C4
:1002E0000F0031000000000000001D001B00060090
:1002F000190005001100100036003700380000001A
:1003000000000000000000000000010000003100BB
:1003100000000000000000000000000044454255BD
:10032000473A2064697361626C65642E0A00444533
:100330004255473A20656E61626C65642E0A000A78
:100340000025303258006C65645F7461736B3A202D
:10035000004F6E6573686F743A20616374697665E7
:100360003A2025640A000A002530313662003A201E
:100370000025303258000A722F6320303132333476
:1003800035363738394142434445460A00290A0088
:100390002575002F002575005D28002564002000CC
:1003A000256400200025640020002564007C0025D1
:1003B000303258006D6F7573656B6579205B6274C0
:1003C0006E7C782079207620685D287265702F61B8
:1003D000636C293A205B006261636B6C69676874C7
:1003E00020737465703A2025750A006261636B6C36
:1003F000696768742064697361626C650A00626190
:10040000636B6C6967687420656E61626C650A0075
:100410006261636B6C6967687420746F67676C6591
:100420003A2025750A006261636B6C696768742005
:1004300064656372656173653A2025750A006261BF
:10044000636B6C6967687420696E6372656173655C
:100450003A2025750A00313A0964656C6179282AC9
:1004600031306D73293A2025750A323A09696E7464
:10047000657276616C286D73293A2025750A333AC6
:10048000096D61785F73706565643A2025750A347B
:100490003A0974696D655F746F5F6D61783A202504
:1004A000750A353A09776865656C5F6D61785F73C9
:1004B000706565643A2025750A363A09776865657E
:1004C0006C5F74696D655F746F5F6D61783A20254C
:1004D000750A00703A097072696E742076616C75E5
:1004E00065730A643A097365742064656661756CA6
:1004F00074730A75703A092B310A646E3A092D310A
:100500000A6C743A092B31300A72743A092D313071
:100510000A4553432F713A09717569740A0A737059
:10052000656564203D2064656C7461202A206D61DE
:10053000785F7370656564202A2028726570656134
:1005400074202F2074696D655F746F5F6D61782909
:100550000A77686572652064656C74613A2063751A
:1005600072736F723D25642C20776865656C3D253C
:10057000640A53656520687474703A2F2F656E2E77
:1005800077696B6970656469612E6F72672F77692F
:100590006B692F4D6F7573655F6B6579730A004DDD
:1005A0003E20004D25753A25733E20003F0A003D50
:1005B0002025750A003F0A0064656661756C7473D6
:1005C0000A0025750A003F0A000A092D2056616CB1
:1005D000756573202D0A00710A000A092D204D6FE0
:1005E0007573656B6579202D0A003F00433E20003E
:1005F0004C25640A000A092D205374617475732018
:100600002D0A686F73745F6B6579626F6172645FE6
:100610006C65647328293A20253032580A6B657955
:10062000626F6172645F70726F746F636F6C3A2097
:10063000253032580A6B6579626F6172645F696454
:100640006C653A20253032580A74696D65725F72A4
:10065000656164333228293A202530386C580A0005
:100660000A092D2056657273696F6E202D0A56494E
:10067000443A20307846454544286765656B686193
:10068000636B29205049443A203078363036302880
:100690004A44343529205645523A2030783030309B
:1006A000310A4255494C443A20202841756720318F
:1006B000312032303232290A4F5054494F4E533A8A
:1006C000204C554641204D4F5553454B45592045EB
:1006D000585452414B455920434F4E534F4C45209F
:1006E000434F4D4D414E4420343039360A47434341
:1006F0003A20382E332E30204156522D4C49424359
:100700003A20322E302E30204156525F415243481B
:100710003A20617672350A000A092D20436F6E7304
:100720006F6C65202D0A4553432F713A0971756925
:10073000740A6D3A096D6F7573656B65790A000A05
:10074000092D204D61676963202D0A443A094465EB
:10075000627567204D65737361676520546F6767C5
:100760006C650A583A094D61747269782044656273
:100770007567204D6F646520546F67676C65202D29
:100780002053686F77206B6579707265737365733A
:1007900020696E206D617472697820677269640ADD
:1007A0004B3A094B6579626F6172642044656275EA
:1007B0006720546F67676C65202D2053686F772022
:1007C0006B65797072657373207265706F72740AED
:1007D0004D3A094465627567204D6F757365205405
:1007E0006F67676C650A563A0956657273696F6E72
:1007F0000A533A095374617475730A433A094163A1
:1008000074697661746520436F6E736F6C65204DFB
:100810006F64650A46312D4631303A095377697461
:10082000636820746F204C6179657220302D392007
:1008300028463130203D204C30290A302D393A09E4
:1008400053776974636820746F204C6179657220F6
:10085000302D390A47524156453A09537769746336
:100860006820746F204C6179657220302028616C9B
:100870007465726E617465290A423A094A756D7031
:1008800020746F20426F6F746C6F616465720A45EB
:1008900053433A094A756D7020746F20426F6F742C
:1008A0006C6F616465722028616C7465726E61742E
:1008B00065290A453A095072696E742045455052BF
:1008C0004F4D2053657474696E67730A42535041EB
:1008D00043453A09436C65617220454550524F4D7E
:1008E0000A006261636B6C696768745F636F6E6650
:1008F00069672E7261773A20253032580A2E656E6C
:1009000061626C653A2025750A2E6C6576656C3AD5
:100910002025750A006B65796D61705F636F6E6687
:1009200069672E7261773A20253032580A2E737724
:1009300061705F636F6E74726F6C5F636170736C14
:100940006F636B3A2025750A2E636170736C6F6359
:100950006B5F746F5F636F6E74726F6C3A20257596
:100960000A2E737761705F6C63746C5F6C67756976
:100970003A2025750A2E737761705F7263746C5F1D
:10098000726775693A2025750A2E737761705F6CFE
:10099000616C745F6C6775693A2025750A2E7377F0
:1009A00061705F72616C745F726775693A2025755A
:1009B0000A2E6E6F5F6775693A2025750A2E737768
:1009C00061705F67726176655F6573633A20257554
:1009D0000A2E737761705F6261636B736C61736819
:1009E0005F6261636B73706163653A2025750A2EDF
:1009F0006E6B726F3A2025750A0064656275675FD9
:100A0000636F6E6669672E7261773A2025303258BF
:100A10000A2E656E61626C653A2025750A2E6D613D
:100A2000747269783A2025750A2E6B6579626F6158
:100A300072643A2025750A2E6D6F7573653A20250C
:100A4000750A006565636F6E6669673A0A64656674
:100A500061756C745F6C617965723A2025750A0066
:100A60003F000A6D6F7573653A206F66660A000A6B
:100A70006D6F7573653A206F6E0A000A6B65796257
:100A80006F6172643A206F66660A000A6B6579626C
:100A90006F6172643A206F6E0A000A6D6174726948
:100AA000783A206F66660A000A6D61747269783A56
:100AB000206F6E0A000A64656275673A206F666689
:100AC0000A000A64656275673A206F6E0A000A0AB6
:100AD0004A756D70696E6720746F20626F6F746CF9
:100AE0006F616465722E2E2E2000433E2000436C01
:100AF000656172696E6720454550524F4D0A000A84
:100B0000002530325820006B6579626F6172645F36
:100B10007265706F72743A20005B735D005B575DA5
:100B2000005B535D005B525D005B445D005B435DB9
:100B3000000A034A00440034003500000012036735
:100B400000650065006B006800610063006B0000D9
:100B500000040309040902BF00050100A0FA09040A
:100B600000000103010100092111010001224000E0
:100B700007058103080001090401000103000000CA
:100B8000092111010001227B0007058203200001D9
:100B900009040200020300000009211101000122E2
:100BA000220007058303200001070503032000013D
:100BB000080B030201010000090403000001010009
:100BC00000092401000109000104090404000201D4
:100BD0000300000724010001410006240201010076
:100BE0000624020202000924030103010201000994
:100BF000240302040101010009050502400005006B
:100C000000052501010109058402400005000005D9
:100C1000250101031201000200000008EDFE6060E2
:100C20000100010200010631FF0974A101097515D7
:100C30000026FF009520750881020976150026FF21
:100C400000952075089102C005010902A1018502E5
:100C50000901A100050919012908150025019508B8
:100C6000750181020501093009311581257F950241
:100C70007508810609381581257F9501750881065B
:100C8000050C0A38021581257F950175088106C07B
:100C9000C005010980A101850319012AB7001501CA
:100CA00026B700950175108100C0050C0901A1014E
:100CB000850419012AA002150126A00295017510CC
:100CC0008100C005010906A101050719E029E71502
:100CD00000250195087501810295017508810105BE
:100CE00007190029FF150026FF00950675088100E9
:100CF00005081901290595057501910295017503EE
:100D00009101C00011241FBECFEFDAE0DEBFCDBFDE
:100D100004B603FE18C08091E1039091E203A09114
:100D2000E303B091E4038730904BA740B04B59F4F4
:100D30001092E1031092E2031092E3031092E40395
:100D4000E0E0F8E3099512E0A0E0B1E0ECE4F2E6BF
:100D500002C005900D92A231B107D9F723E0A2E1BC
:100D6000B2E001C01D92A13EB207E1F70E94D11787
:100D70000C940E310C940000FF93EF93E09112025B
:100D8000F0911302309709F00995EF91FF910895C2
:100D9000FC018591803011F0EFDFFBCF0895FF2734
:100DA000E0E230E247FF0CC0419597FF09C0EDE259
:100DB0006095709580959095611D711D811D911DA7
:100DC00027FF02C0219530E350E2AA27660F771F64
:100DD000881F991FAA1FA41710F0A41B63955A958A
:100DE000A9F7AA3008F0A95FA05DAF93F39561154C
:100DF00071058105910541F7ED3211F4EF93F395FB
:100E0000F21718F43F93F395FBCF8F91B5DFFA9566
:100E1000E1F70895E991F9918591803021F08532CB
:100E200019F0AADFF9CF089520E0E89455915532E2
:100E3000C1F3503311F4689455915A3348F4505328
:100E400090F3220F022E220F220F200D250FF4CF38
:100E50000EF4219589919991533619F3533729F15D
:100E6000533559F1BC0188279927E8945C3621F461
:100E70008991999168945591543639F446EF7EF0F2
:100E800077FF0DC08FEF9FEF0AC055374AE039F06A
:100E9000583540E121F0523642E009F00895FF93C1
:100EA000EF937DDFEF91FF91B7CFFF93EF93FC01BD
:100EB00081918030B9F360DFFBCFFF93EF9368DF60
:100EC000F1CFDF93CF93CDB7DEB72596A3DFCF91D8
:100ED000DF91089581E0089581E008950E946C07F4
:100EE000089508950E9471070895A5E0B0E0EBE72A
:100EF000F7E00C94973049835A8330911502898129
:100F00009A81311119C0662399F0222389F00E9439
:100F1000610E182F682F89819A810E943D0E698188
:100F20007A81812F0E9402152596E3E00C94B3305C
:100F30000E944F0E182FF3CF0E94610E69817A81B3
:100F4000F1CFFC01262F4081518162817381848120
:100F50000E947507089581E00895CF93DF93EC0117
:100F600060E00E94A107BE010E947207DF91CF914D
:100F700008950E943C1608950E9440160895089511
:100F80000E948C0C0E94BF072FEF84E39CE021504D
:100F900080409040E1F700C0000008950E94C00723
:100FA0000E94582408950E94C0070E947C2408953E
:100FB0000F931F93CF93DF938C0161E00E94A107F1
:100FC000EC01B8010E946E07811106C080E0DF913C
:100FD000CF911F910F910895B801CE010E943B1C43
:100FE0008823A1F3B801CE010E942122882371F346
:100FF000B801CE010E94281D882341F3B801CE011B
:101000000E949321882311F3F80182818823D9F06B
:10101000CB35FDE5DF07A9F170F4C130ECE5DE0763
:10102000B1F0CF3DFCE5DF0721F1C115DC4559F4F6
:101030000E94CE07CBCFCD35EDE5DE07F9F020F1EC
:10104000C83ADD45C1F0C8010E946A07C0CF90913F
:101050009D02892F8E7F90FF816080939D0280FF8B
:1010600005C08EE293E00E94C806B0CF8CE193E009
:10107000FACF0E943A130E94D307A8CF0E9474129D
:10108000E2CF0E947E12DFCF0E948212DCCF0E944C
:10109000892380E00E94701C0E948E0808950E949F
:1010A000FD1A0E9492080E948E230895829590E076
:1010B0009C01220F331F220F331F2C7C959587959F
:1010C000959587958373282B30E0C901880F991F68
:1010D0008A7A359527952575822B0895CF93DF93CE
:1010E000D92F0E945608C82F8D2F0E9456089C2F7A
:1010F000DF91CF91089508950E947B08089581E0C3
:1011000008950E947F0808950895CF93C82F0E94E4
:101110007C088C2F0E948108CF91089580E00E9466
:10112000850808950E947D220E9485080895CF9326
:101130000E947D22C82F809114028C1739F1C09330
:10114000140280919D0282FF1EC080FF1CC086E4B5
:1011500093E00E94C80680919D0280FF14C01F92F8
:10116000CF9381E493E09F938F930E9461078091D6
:101170009D020F900F900F900F9080FF04C08FE39F
:1011800093E00E94C8068C2F0E948508CF91089595
:10119000ABE0B0E0EEECF8E00C9498304F83588769
:1011A00069877A878B8761110E94AC111E821D822C
:1011B00085E0FE013796DE01119601900D928A9529
:1011C000E1F78C819D81892B61F449815A816B8182
:1011D0007C818D819E810E94D5102B96E2E00C943B
:1011E000B43089819A8189238F3F79F3CE010196AA
:1011F0000E94AB078111E9CFF0CFFC018081918182
:101200000E949B0E0895CF93C82F8823C9F082387F
:10121000C9F40E947D2281FD13C089E30E946411FC
:101220000E94CD112FEF81EE94E02150804090403C
:10123000E1F700C0000089E30E946C110E94CD110B
:10124000CF9108958338A1F40E947D2280FDF8CFCC
:1012500083E50E9464110E94CD112FEF81EE94E08E
:10126000215080409040E1F700C0000083E5E4CFCA
:101270008438A1F40E947D2282FDE2CF87E40E949F
:1012800064110E94CD112FEF81EE94E02150804037
:101290009040E1F700C0000087E4CECF8CEF8C0FC8
:1012A000813AB8F48C2F0E943F218111C9CF6C2F55
:1012B00080910001909101010E941A23882329F056
:1012C0008C2F0E946C110E94CD118C2F0E946411F2
:1012D000B5CF80E28C0F883048F4C77081E001C040
:1012E000880FCA95EAF70E948F11A8CFEBE5EC0FA3
:1012F000E33040F4F0E0EF5AFE4F808190E00E942E
:10130000DC229ECFE8E5EC0FE73150F4F0E0EE0F81
:10131000FF1FED5DFE4F808191810E94F22290CFF0
:10132000CD3E08F48DCF8C2F0E945A180E942D19A3
:1013300087CF882309F455C0823879F40E947D2232
:1013400081FF4FC089E30E9464110E94CD1189E39F
:101350000E946C110E94CD110895833859F40E94A7
:101360007D2280FF3EC083E50E9464110E94CD1162
:1013700083E5EECF843859F40E947D2282FF31C08C
:1013800087E40E9464110E94CD1187E4E1CF9CEFB5
:10139000980F913AE8F290E2980F983050F48770E5
:1013A00091E001C0990F8A95EAF7892F0E94951163
:1013B000D1CF9BE5980F933028F490E080E00E9415
:1013C000DC22089598E5980F973128F490E080E0AA
:1013D0000E94F22208958D3E20F00E94B4180E94CF
:1013E0002D1908951F93CF93DF93182FEB010E94BF
:1013F0000309209739F4812F0E949909DF91CF9139
:101400001F9108958FE99FE00197F1F700C0000058
:101410002197EFCF70E060E0893311F460E570E070
:101420000E94F2090895882321F00E948F110E94E2
:10143000CD110895882321F00E9495110E94CD11AD
:101440000895B0E0A0E0E7E2FAE00C9491306C017E
:10145000D62FC72FFC011281F580F2949FE0F9226C
:101460000E948511E82E8823B9F0E12E1123A1F006
:101470008C2F807F803421F080E28D0F8830D0F077
:101480008091D10282FF16C082E00E9430120E9439
:10149000851191E0E82EE926BC2EB2948FE0B822A7
:1014A000FBE0FB1508F468C0EB2DF0E0E05FFE4CBC
:1014B0000C946830E12CF0CF0C2F0F70C07F11F02E
:1014C0000295007F112399F0002359F080E28D0FDF
:1014D000883010F0D11107C0802F0E948F110E9418
:1014E000CD118D2F41C0802F0E949F11F8CF8D2FDD
:1014F0000E949909002309F43FC080E28D0F8830D3
:1015000010F0D11104C0802F0E94951103C0802FCC
:101510000E94A5110E94CD112FC00C2F0F70C07F0B
:10152000C03211F00295007FDD2381F0D13009F443
:1015300063C0112309F46DC0FF2009F463C0F601F4
:10154000858180FFCECF8F7085835CC08091D10272
:1015500082FD33C0112359F0002329F0802F0E940F
:101560008F110E94CD1180E00E94030905C080E028
:101570000E9499090111C7CFEB2DE850FF0B34975A
:1015800020F40E947D220E948508EE2089F00E94AE
:10159000811180FD0DC0F60112820E947B110E9414
:1015A000450DC6010E944C0C0E947B110E94670DE4
:1015B000CDB7DEB7E9E00C94AD30112389F0F1101E
:1015C00006C00E94AF11802B0E94130AD5CF21E0E4
:1015D000F212F7CF0E94AF11802B0E94B611CCCF30
:1015E000F11006C00E94C311802F0E941A0AC4CFB6
:1015F00031E0F31609F2F6CF112331F085E08F15B3
:1016000008F4BACF802FE0CF94E09F1508F4B4CF50
:10161000EBCFFF2049F3D93349F4FFEF27EE33E056
:10162000F15020403040E1F700C000008D2F0E94B3
:101630009909A2CF8C2F86958695837069F08130A9
:1016400009F09ACF8D2F9C2F9370111102C090E05A
:1016500080E00E94F22290CF8D2F9C2F9370111169
:1016600002C090E080E00E94DC2286CF8D2F112303
:1016700029F00E945A180E942D197ECF0E94B4189A
:10168000FACF8C2F837009F041C0111175CF4D2F07
:10169000429546954770440F440F0D2F0F7010E090
:1016A00030E020E0042E04C0000F111F221F331F62
:1016B0000A94D2F760E070E0CB01D4FF0FC06FE076
:1016C00070E080E090E004C0660F771F881F991FCC
:1016D0004A95D2F76095709580959095C695C69578
:1016E000C370602B712B822B932BC23049F058F4BE
:1016F000C13019F00E94F00C3FCF0E94DD0C3CCFAE
:101700000E94030D39CF0E94DA0C36CF8695112343
:1017100011F08C2F8170882309F42ECF4D2F429524
:1017200046954770440F440F0D2F0F7010E030E0C6
:1017300020E0042E04C0000F111F221F331F0A9443
:10174000D2F760E070E0CB01D4FF0FC06FE070E033
:1017500080E090E004C0660F771F881F991F4A95AC
:10176000D2F76095709580959095C695C695C37093
:10177000602B712B822B932BC23049F058F4C1306F
:1017800019F00E94C00DF8CE0E94AD0DF5CE0E945A
:10179000D30DF2CE0E941C0DEFCECF70112329F095
:1017A0008C2F0E94450D8D2F0FCF8D2F0E941A0A6E
:1017B0008C2F0E94670DE0CED23F51F160F4D03FF4
:1017C000B9F0D13F81F0112309F449C0F11089CE5D
:1017D0008C2F8F7121C0D33F11F1D43FA1F780919D
:1017E000D10282FD26C08C2F8F71112311F314C0FA
:1017F000112349F084E08F1508F4BECE8C2F8F7131
:101800000E948B0DB9CE95E09F1508F4B5CEF6CFAA
:101810008C2F8F711111CDCF0E94450DADCE1123AC
:1018200029F08C2F8F710E942F0DA6CE0E94290DBA
:10183000A3CE112349F0CF718C2F0E94450D63E098
:101840008C2F0E94121298CE81E00E943012E1E0AB
:10185000EF1508F091CE82E00E9430128DCEF1108B
:10186000DACE8C2F8F71A5CF0F931F93CF93DF9379
:10187000EC01688179818A810E94A60E8C010E9408
:10188000E60D0E94D90CB801CE010E94210ADF9119
:10189000CF911F910F910895CF93DF93EC018B812E
:1018A0009C81892B29F08881998189238F3F51F46C
:1018B000DF91CF910895CE010E94340CCE010E9499
:1018C000AD07F6CFCE010E94D8078111F4CF0E9458
:1018D0008511882369F38A81882351F38091D1028D
:1018E00082FFE6CF82E00E943012E2CF90E080E0FB
:1018F0000E94DC2290E080E00E94F2220E94AC1163
:101900000E94CD110E94CB190E942D1908950E94AA
:1019100074110E94760C08950E949C110E94870CFD
:10192000089592959F70963091F058F4925F9F7051
:10193000923058F4803F19F030F4883E30F481E062
:1019400008959A5FF4CF843FD1F380E00895883EF4
:10195000B0F3813FD1F7F3CFFC01808191810E94E8
:101960009B0E0E94910C0895A5E0B0E0EAEBFCE02C
:101970000C9498302596E2E00C94B430A6E0B0E0E8
:10198000E4ECFCE00C9498302696E2E00C94B43041
:1019900008950E94C80C08950E94C90C60933D02EE
:1019A00070933E0280933F02909340020E94760C17
:1019B000089508950E94CC0C08950F931F930091F1
:1019C0003D0210913E0220913F0230914002602B77
:1019D000712B822B932B0E94CC0C1F910F91089599
:1019E0000F931F9300913D0210913E0220913F0200
:1019F0003091400260237123822393230E94CC0CF8
:101A00001F910F9108950F931F9300913D02109124
:101A10003E0220913F0230914002602771278227C9
:101A200093270E94CC0C1F910F9108950E94C80C1F
:101A300008950E94160D08950E94190D60933902B1
:101A400070933A0280933B0290933C020E94760C82
:101A5000089560E070E0CB010E941C0D08950F9383
:101A60001F9341E050E060E070E08A019B0104C0F8
:101A7000000F111F221F331F8A95D2F7C901B80129
:101A80000E941C0D1F910F9108950F931F9341E029
:101A900050E060E070E004C0440F551F661F771FE0
:101AA0008A95D2F78091390290913A02A0913B0237
:101AB000B0913C028A019B01082B192B2A2B3B2B4E
:101AC000C901B8010E941C0D1F910F9108950F9339
:101AD0001F9341E050E060E070E004C0440F551FE8
:101AE000661F771F8A95D2F7CB01BA016095709572
:101AF000809590950091390210913A0220913B0215
:101B000030913C0260237123822393230E941C0D99
:101B10001F910F9108950F931F9341E050E060E0F3
:101B200070E004C0440F551F661F771F8A95D2F7D7
:101B30008091390290913A02A0913B02B0913C020F
:101B40008A019B01082719272A273B27C901B801C9
:101B50000E941C0D1F910F9108950F931F930091E8
:101B6000390210913A0220913B0230913C02602BE5
:101B7000712B822B932B0E941C0D1F910F910895A6
:101B80000F931F930091390210913A0220913B026A
:101B900030913C0260237123822393230E941C0D09
:101BA0001F910F9108950F931F9300913902109187
:101BB0003A0220913B0230913C0260277127822734
:101BC00093270E941C0D1F910F9108950895262FB1
:101BD000277091E001C0990F2A95EAF723E07695E6
:101BE00067952A95E1F725E0269FF001279FF00DE4
:101BF0001124E40FF51F50E040E0682F70E0819160
:101C0000DF0111979B01042E02C0369527950A9497
:101C1000E2F7217021952827292328272C934F5F4D
:101C20005F4F4530510559F70895A82FA77023E05D
:101C3000969587952A95E1F725E0289FF001299F41
:101C4000F00D1124E60FF71F50E040E080E02191F5
:101C500030E00A2E02C0369527950A94E2F72170EB
:101C60003327042E01C0220F0A94EAF7822B4F5F1C
:101C70005F4F4530510559F70895262F943070F481
:101C80008D3060F4682F70E08DE0989F600D711DBD
:101C9000112446E152E0822F0E94E70D0895292F7A
:101CA000943068F48D3058F490E066E172E03DE0E5
:101CB000239F800D911D11240E94150E089580E030
:101CC0000895B0E0A0E0E7E6FEE00C9491308C01CE
:101CD000C0903902D0903A02E0903B02F0903C0272
:101CE00080913D0290913E02A0913F02B09140024E
:101CF000C82AD92AEA2AFB2ACFE1D0E0BC2ED70194
:101D0000C6010C2E04C0B695A795979587950A94A1
:101D1000D2F780FD09C0219788F7B12C8B2DCDB764
:101D2000DEB7E9E00C94AD30B8018C2F0E941D1590
:101D3000019789F3F3CFCF93DF93EC010E94610EFB
:101D4000BE010E941D15DF91CF9108951F93CF937F
:101D5000DF93EB0190911502992339F0CB010E949A
:101D60009B0EDF91CF911F910895882369F0CB01DD
:101D70000E94610E182F682FCE010E943D0EBE01F9
:101D8000812F0E941D15EDCFCB010E944F0E182F01
:101D9000F6CF1F93CF93DF93C091410216E080915D
:101DA00042028C1304C0DF91CF911F910895D0E0BF
:101DB0001C9FF0011D9FF00D1124ED5BFD4F408134
:101DC000518162817381848195810E94BE0C21962C
:101DD000C770E5CF40917302509174026091750213
:101DE0007091760280917702909178020E94BE0CE9
:101DF00008951F93CF93DF9380917802807F09F03D
:101E000049C080917502882309F444C08091410241
:101E1000C09142026091730270917402A0917602A7
:101E2000B0917702D62FD72316E0C81799F190E02A
:101E3000109711F0DF3F19F401968770F6CF189FC5
:101E40009001199F300D1124F901ED5BFD4F418187
:101E50004713F2CF40814613EFCF42814111ECCFBF
:101E6000438154814A1B5B0B483C510528F7809104
:101E700078028F70806180937802F901E85BFD4FF2
:101E800080818F708061808383E792E00E944C0C98
:101E90000E94C90EDF91CF911F910895A1E1B0E09A
:101EA000E4E5FFE00C9490308C0185E0F801DE0160
:101EB0001D9601900D928A95E1F7F801E28083E783
:101EC000C82E82E0D82E609176027091770261155B
:101ED000710509F44EC19091730220917402892F0B
:101EE00082238F3F09F445C140815181A380B48092
:101EF000F0907502F501E61BF70BFF2009F4EAC02C
:101F000080917802382F307FE83CF10508F0A3C0BB
:101F100031116DC0FE2C251316C0941314C0E110AE
:101F200012C08F708061809378020E94EA0EC60111
:101F30000E944C0C80917802F80185838F2D619668
:101F4000EAE00C94AC30A114B10429F0842F85236D
:101F50008F3F09F027C180E0F82FF170DF2E80FF5E
:101F60003CC0809141022091420236E0821315C0AC
:101F70004D875E878D859E850E949B0E292F229519
:101F80002F702230F0F0243018F59F70F1F0F80136
:101F90009581907FD1F4D12C1EC090E0389FF00144
:101FA000399FF00D1124ED5BFD4F6181651306C073
:101FB0006081641303C06281E6120FC001968770CE
:101FC000D5CF9F7011F0882331F3805E883018F3ED
:101FD000C8010E944C0CFD2CB1CFEE2009F4AECF0D
:101FE00080917802816080937802F12CA7CF25132D
:101FF00006C0941304C0F801EE2009F487C0C8019C
:102000000E94AC0C882319F1EE2009F1809178022E
:10201000803270F0209173023091740238872F83E0
:102020001986BB86AA868C87CE0107960E944C0C27
:1020300086E0F801A3E7B2E001900D928A95E1F7FE
:102040000E94F90E0E94EA0EFF24F39477CFC80194
:102050000E944C0CF9CF311113C07A2DB98AA88A8D
:102060006E2D89890E94B40C83E792E00E944C0C8B
:1020700086E0F60111928A95E9F70E94EA0EB5CF43
:1020800025130FC094130DC0E1100BC0F801858318
:10209000C8010E944C0C86E0F60111928A95E9F77E
:1020A0004DCFC8010E94AC0C882389F2EE2079F252
:1020B00080917802803208F4BBCF20917302309176
:1020C00074023A8329831B82BD82AC828E83CE0147
:1020D0000196ACCFE83CF10508F03EC0FE2CEE20A6
:1020E00009F4B5CF25132AC0941328C08091780233
:1020F00080FD1BC0982F907FC1F0F8018583903F31
:1021000031F0982F907F905F8F70892B8583C80165
:102110000E944C0C86E0F801A3E7B2E001900D921A
:102120008A95E1F70E94EA0E09CF86E0F801A3E75D
:10213000B2E001900D928A95E1F700CFC8010E94AC
:10214000AC0C811175CF8091780281608093780208
:10215000C8010E944C0CF2CE7A2DB98AA88A6E2D45
:1021600089890E94B40C86E0F60111928A95E9F7FC
:10217000D9CFEE2009F46BCFC8010E94AC0CF82E29
:10218000882309F464CF86E0F801A3E7B2E0019068
:102190000D928A95E1F783E792E00E94FD080E9484
:1021A000F90EC0CF81E08E25D7CEACE0B0E0EBEDEC
:1021B000F0E10C9497304F83588769877A878B8733
:1021C0009C87CE0107960E944E0F882369F08A856E
:1021D0009B85892B39F04F815885842F85238F3F2C
:1021E00009F06BC016E05FC086E0FE013796DE01A5
:1021F000119601900D928A95E1F78A859B85892B2E
:1022000089F388859F8189238F3F61F32091420262
:1022100030E0C90101968770992740914102481723
:10222000190671F40E948C0C109242021092410225
:1022300086E0E3E7F2E0DF011D928A95E9F7D2CF6D
:1022400096E0929FD001939FB00D1124AD5BBD4FDE
:10225000FE01319601900D929A95E1F7809342022A
:102260000E94C90EBFCF819FC00111248D5B9D4F7D
:102270000E944E0F8823E9F0E09141021E9FF00179
:102280001124ED5BFD4F4081518162817381848116
:1022900095810E94BE0C8091410290E0019687706A
:1022A00099278093410280914102909142028913C3
:1022B000DACF2C96E3E00C94B33069857A858B8570
:1022C0009C850E94BE0C8ECF682F8091000190915A
:1022D00001010E9450230895682F80910001909180
:1022E00001010E9453230895809100019091010102
:1022F0000E94562308958091810285958595859544
:10230000089580918102877008959091810297705D
:1023100081E009F480E0089580918C020895909105
:102320008C02892B80938C020895809590918C0269
:10233000982390938C02089510928C0208959091A6
:102340008B02892B80938B020895809590918B024C
:10235000982390938B02089510928B020895809198
:102360008202089508950E94B21108959091D102B9
:1023700092FF08C090918202981721F08093820208
:102380000E94B311089580918202882329F010924F
:10239000820280E00E94B3110895CF93DF93E09111
:1023A0000001F091010180918C028083E091000195
:1023B000F0910101808190918B02892B8083909113
:1023C0008202992381F0E0910001F0910101808166
:1023D000892B808380910001909101010E94082344
:1023E00081110E94C311C0910001D091010148E008
:1023F00050E069E772E0CE010E94BF30892B59F0AE
:1024000088E0FE01A9E7B2E001900D928A95E1F71C
:10241000CE010E948A22DF91CF91089508950E94F3
:102420000E1208959091D10292FF11C098E0899FF9
:1024300090011124622B609381020E94450D8091CE
:1024400081028595859585950E940F1208950E94B9
:10245000450D08951092810280E00E940F120895A8
:10246000909181028095892380938102282F277083
:1024700091F4282F082E000C330B9217130659F0F5
:102480009091D10292FF07C08595859585950E9410
:10249000670D0E942A120895CF93C82F8091D10210
:1024A00082FB992790F99C17E9F0C0FB82F9809391
:1024B000D1028091D0029091D1020E94B01282E0AC
:1024C0000E94301280919D0280FF0CC01F92CF931A
:1024D00081E593E09F938F930E9461070F900F9087
:1024E0000F900F90CF9108958091D10282FB8827A1
:1024F00080F991E089270E944C12089581E00E94A2
:102500004C12089580E00E944C1208956FEF7FEF07
:1025100090E080E00E94F830089590E080E00E9412
:10252000D43021E0883E9E4F09F020E0822F0895AC
:1025300082E090E00E94CC30089583E090E00E9419
:10254000CC300895CF9384E090E00E94CC30C82F27
:1025500082E290E00E94CC30982F8C2FCF9108958A
:10256000CF93C92F682F84E090E00E94DA306C2F5F
:1025700082E290E00E94DA30CF910895AB01BC0175
:102580008FE090E00E94EC300895AB01BC0183E144
:1025900090E00E94EC30089560E070E0CB010E9472
:1025A000C512089560E070E0CB010E94BE120E9447
:1025B000CC12089568EE7EEF90E080E00E94F83043
:1025C00060E082E090E00E94DA3060E083E090E03A
:1025D0000E94DA3010923D0210923E0210923F02A9
:1025E0001092400260E084E090E00E94DA3064E003
:1025F00082E290E00E94DA3060E085E090E00E94A4
:10260000DA3060E086E090E00E94DA306FEF87E039
:1026100090E00E94DA3040E050E0BA0188E090E0BB
:102620000E94EC3060E08DE090E00E94DA3040E003
:1026300050E0BA0188E190E00E94EC3060E087E170
:1026400090E00E94DA3040E050E0BA018CE190E086
:102650000E94EC3070E060E080E290E00E94F83090
:1026600040E050E0BA0188E190E00E94EC300E9426
:10267000D21208950E94DA120895682F8EE090E039
:102680000E94DA3008950E94192460939902709391
:102690009A0280939B0290939C02609395027093A0
:1026A0009602809397029093980208950895089552
:1026B0000E945713089508950E945B1308958EEFAA
:1026C00099E20E9473220E9456130E9458130895A3
:1026D00081E008950E9468130895089508950E9466
:1026E0006D130E946E1308950E9416160E948408AE
:1026F0000E94171D08950E9404240E9438170E940A
:1027000074130E94FD1A0E945C130895AAE0B0E0C1
:10271000ECE8F3E10C948B300E944E17A82E811147
:102720000E9443133DE8832E32E0932E10E000E038
:10273000502E802F0E9443166C01F401619071901D
:102740004F016816790609F443C080919D0281FD0E
:102750000E944C16B12CEE24E394F12C6C247D24C1
:10276000C3018E219F21892B69F10E946A1388235E
:10277000B1F0BE825F82CE20DF2081E0C114D1049F
:1027800009F480E088870E940D248160782F9A8761
:1027900089874E815F8168858A850E94C808000FFD
:1027A000111FF801E357FD4F80819181E826F9263A
:1027B000F182E08281E0A11001C080E02A96EFE082
:1027C0000C94A730B394EE0CFF1CFDE0BF12C8CFF1
:1027D0000F5F1F4F0430110509F0AACF8FEF8983D7
:1027E0008A831B820E940D248160782F9D838C83B5
:1027F00049815A816B818D810E94C808DBCF0E947C
:1028000086130E94161D0E94ED190E94DE170E9479
:1028100097080895CF93DF930E942215EC0181154C
:1028200021E5920708F042C0811530E5930708F0D2
:102830009DC0883E910530F5803E910508F092C01C
:10284000883A910588F4853A910508F084C0813072
:10285000910509F487C0009709F484C0049708F033
:1028600081C0D0E0C0E07EC08F3B9105D0F7C85A50
:10287000D0E0CC0FDD1FCC5ADE4F0990D881C02D9F
:10288000D46470C08115904250F4C11581E0D8071E
:1028900008F068C0CD3ED10520F3D06563C0C115F6
:1028A00090E4D907F0F2DF70D06A5CC0811525E5AD
:1028B000920700F5811534E5930708F08BC0811568
:1028C00043E5940708F073C0C11582E5D80708F402
:1028D00069C0CE018370992721E030E002C0220F49
:1028E000331F8A95E2F7C695C69580E2C89FE0013E
:1028F000112454C0C11599E5D907A8F4C11528E5DC
:10290000D20708F06CC0C11536E5D30708F0A9CF8F
:102910008C2F0E94B915C82FD0E0DC2FCC27CC27F4
:10292000DF71D0621FC0C1154AE5D40708F45CC04E
:10293000CE0190568115904208F093CF8D2F8F7164
:102940000E94B91590E0982F882788279F719C01D5
:102950002C2BE901E6CFC55AD0E0CE57DE4FC88117
:10296000D0E0D064CE01DF91CF910895E4E0969558
:102970008795EA95E1F783702C2F2695269523708D
:1029800040E2249F90011124382B8C2F8370C1E0EA
:10299000D0E002C0CC0FDD1F8A95E2F7C22BD32B0B
:1029A000DC68E0CFDC2FCC27C16FD06ADBCF83702F
:1029B000992721E030E002C0220F331F8A95E2F709
:1029C000C695C69590E2C99FE0011124C22BD32B76
:1029D000DA68C8CFD82FCC27C46FD06AC3CFDC2F1A
:1029E000CC27C06FD06ABECF8C2F8F700E94B915D4
:1029F00034E0D695C7953A95E1F7CF709C2FEC015E
:102A0000D069B0CF972F7430A8F46D3098F470E08F
:102A10002DE0929F600D711D1124FB0194E3899FAD
:102A2000E00DF11D1124EE0FFF1FE455FF4F8591BE
:102A30009491089580E090E008950E9402150E940C
:102A40000A14089582389105B1F1B0F481339105EB
:102A500009F475C048F48932910509F469C08A32D5
:102A6000910509F473C008958533910509F459C09F
:102A70008933910501F10895833E9105A9F138F458
:102A8000803E9105F9F0823E910549F10895863E18
:102A90009105A9F1873E9105C9F1843E910519F58B
:102AA0002091D10221FF1FC08091D00284FD14C06B
:102AB00087EE90E008952091D0022370A1F080EE7F
:102AC00090E008952091D00220FD47C03091D102BE
:102AD00030FF09C024FF44C090E080E004C0209192
:102AE000D00222FDF7CF08952091D00222FD3BC0F5
:102AF0003091D10230FDE3CF24FFF5CFEDCF20910F
:102B0000D00223FFF0CF24FDE7CFD2CF2091D00217
:102B100023FD2CC03091D10231FFEECF84EE90E046
:102B200008952091D00225FFDECF89E290E008953C
:102B30002091D00225FFD7CF85E390E00895209122
:102B4000D00226FFD0CF8AE290E008952091D002F3
:102B500026FFC9CF81E390E0089589E390E00895CE
:102B600083EE90E0089582EE90E0089586EE90E086
:102B700008959091D00292FF06C0282F2871283026
:102B8000F9F4877F846093FF06C0282F28712831CD
:102B9000F1F4877E84612091D10220FF06C0382F96
:102BA00038713830D9F4877F816021FF06C0282F23
:102BB00028712831D1F4877E816194FD877E089544
:102BC000282F24712430F9F68B7F8860DCCF282FE2
:102BD0002471243101F78B7E8861DDCF382F31716C
:102BE000313019F78E7F8860E0CF282F2171213195
:102BF00021F78E7E8861E1CF0E94861208950E949F
:102C00004E178FE39CE90197F1F700C000000E9486
:102C10004E1780E00E94431680FF04C00E94FC15FE
:102C20000E94582408950E94FF1508950E948D1255
:102C3000811102C00E943A130E94981280939D0253
:102C40000E94A2129093D1028093D0020E94131688
:102C50000E949D12682F70E090E080E00E94DA0CE4
:102C60006091390270913A0280913B0290913C024E
:102C70000E94190D089508950E943B160895089525
:102C80000E943F160895E82FF0E0EE0FFF1FE65276
:102C9000FD4F808191810895B0E0A0E0E2E5F6E18A
:102CA0000C94923086E793E00E94C8068AEDE82EE5
:102CB00082E0F82ED0E0C0E091E7C92E93E0D92E53
:102CC00008E613E0DF93CF93DF92CF920E94610773
:102CD0008EE693E00E94C806F701819191917F01F1
:102CE0000E946E089F938F931F930F930E9461071A
:102CF00086E693E00E94C80621968DB79EB7089697
:102D00000FB6F8949EBF0FBE8DBFC430D105D1F66B
:102D1000CDB7DEB7E8E00C94AE3080EA8A95F1F7E3
:102D2000089500C008950E948D160895F894E82F24
:102D3000E295EF70F0E031A1282F2F7081E090E054
:102D400001C0880F2A95EAF7982F9095932391A3B5
:102D500092A1892B82A378940895CF93DF9380EF7B
:102D60000E94961681EF0E94961685EF0E94961695
:102D700084E30E949616C5E8D1E089918F3F11F057
:102D80000E94961681E0C239D807B9F7DF91CF913A
:102D90000895AF92BF92DF92EF92FF920F931F932D
:102DA000CF93DF938C01D62EC62FD0E0CE018E5666
:102DB0009E4F7C01FC0120812F3F09F44CC0F89408
:102DC000E22FE295EF70F0E031A12F7081E090E00A
:102DD00001C0880F2A95EAF7932F982B91A392A10F
:102DE0008095892382A378940E949116E5E8F1E00A
:102DF00041E050E0B12CA12C21912F3FB1F1A22F45
:102E0000A295AF70B0E090968C9190E02F7002C0C8
:102E1000959587952A95E2F780FD27C0CA01A82AD3
:102E2000B92A440F551F81E0E239F80729F7F70165
:102E300080818F3F11F00E94961661E0A114B104C9
:102E400009F460E08D2D0E949316CC0FDD1FC00F9A
:102E5000D11FB982A882DF91CF911F910F91FF906E
:102E6000EF90DF90BF90AF90089590E080E0D7CFD3
:102E70000E94AD1688E0EAEDF2E0DF01982F1D9286
:102E80009A95E9F7E2EDF2E0DF011D928A95E9F704
:102E900084E00E948A170E94B9070895A8E0B0E074
:102EA000E4E5F7E10C9495308E010F5F1F4F88E049
:102EB000F80111928A95E9F7F12C6F2DC8010E9453
:102EC000C916F394F4E0FF12F8CF48E050E0B801DF
:102ED00082ED92E00E94BF30FF24F394009709F442
:102EE000F12C892B41F088E0F801A2EDB2E00190CD
:102EF0000D928A95E1F72F2D44E06AED72E082EDA4
:102F000092E00E948B170E94BC078F2D2896E5E067
:102F10000C94B1300895FF920F931F93CF93DF93DA
:102F2000F82E092F162FD72FC42F222349F081E026
:102F30008093A0020E940D2490939F0280939E0292
:102F40008091A0028823A1F080919E0290919F021F
:102F50000E942524059760F0EF2DF02FA12FBD2FA3
:102F600090E080E0D0E08C179D073CF01092A0022A
:102F7000CDB7DEB7E5E00C94B130219131912D93BE
:102F80003D930196F0CF0E94882A0E947B130E94F5
:102F9000952A08950E949A2A0E94FF130E94B82A37
:102FA00008950E94A6230E946C2A0E945F130E942B
:102FB000C3170E94CA170E946F13FBCF87EE92E0DF
:102FC0000E947E2608958091A70280FF0DC0609127
:102FD000070170E0660F771F6038710570F56115A5
:102FE000710569F1862F089581FF07C0609107017F
:102FF00084E0689FB0011124EFCF6091070182FD4A
:103000000AC08091A6028823A9F020910601609150
:103010000701821710F088E0ECCF869FC0011124D1
:1030200033E0880F991F3A95E1F7622F70E00E9414
:103030003230D2CF68E070E0D5CF8FE7089581E0DD
:1030400008958091A70280FF0CC06091030170E099
:1030500075956795759567956115710549F1862F89
:10306000089581FF06C06091030170E07595679532
:10307000F3CF6091030182FD0BC09091A5029923CB
:10308000A1F06091020180910301961738F0682F3A
:1030900070E06038710500F38FE70895899FC001E3
:1030A000112470E00E943230F4CF61E070E0D7CF9D
:1030B00081E008958D3E31F40E94E317819580935D
:1030C000AB0208958E3E19F40E94E317F8CF8F3EAD
:1030D00031F40E94E31781958093AA020895803FFE
:1030E00019F40E94E317F8CF893F29F40E942118B0
:1030F0008093AC0208958A3F21F40E9421188195A3
:10310000F7CF8B3F31F40E94211881958093AD0257
:1031100008958C3F19F40E942118F8CF9FE0980F72
:10312000983070F4815F990B21E030E001C0220FEC
:103130008A95EAF78091A902822B8093A9020895CB
:103140008D3F31F48091A70281608093A70208959A
:103150008E3F21F48091A7028260F7CF8F3FB9F7AD
:103160008091A7028460F1CF4091AA028D3E59F46C
:103170008091AB0287FF0DC01092AB0241110BC0D2
:103180001092A60208C08E3E81F48091AB02181600
:103190009CF3442381F08091AC029091AD02892B85
:1031A00009F05AC01092A50208958F3E49F447FFD6
:1031B000F0CF1092AA028091AB028111ECCFE0CF48
:1031C000803F19F41416ACF3E4CF9091AC02893F20
:1031D00029F41916F4F61092AC02DBCF8A3F19F4E9
:1031E00097FFD7CFF8CF9091AD028B3F29F497FF8F
:1031F000D0CF1092AD02CDCF8C3F19F41916CCF37D
:10320000C8CF9FE0980F983090F4815F990B21E030
:1032100030E0B90102C0660F771F8A95E2F7CB0153
:1032200080959091A90289238093A902B2CF8D3F06
:1032300031F48091A7028E7F8093A702AACF8E3FA0
:1032400021F48091A7028D7FF7CF8F3F09F0A1CFA6
:103250008091A7028B7FF0CF089580919D0283FF1C
:103260007EC084EB93E00E94C8068091A9021F9261
:103270008F938FEA93E09F938F930E9461078DEA6B
:1032800093E00E94C8068091AA02282F082E000C05
:10329000330B3F938F938AEA93E09F938F930E941F
:1032A000610788EA93E00E94C8068091AB02282F4C
:1032B000082E000C330B3F938F9385EA93E09F9386
:1032C0008F930E94610783EA93E00E94C806809171
:1032D000AC02282F082E000C330B3F938F9380EA0B
:1032E00093E09F938F930E9461078EE993E00E9481
:1032F000C8068091AD02282F082E000C330B3F9397
:103300008F938BE993E09F938F930E94610788E9E5
:1033100093E00E94C8068091A6021F928F9385E9D0
:1033200093E09F938F930E94610783E993E00E944B
:10333000C8068091A7021F928F9380E993E09F9324
:103340008F930E9461078DE893E00E94C8068DB7B5
:103350009EB74C960FB6F8949EBF0FBE8DBF0E94CD
:103360000D249C019091AA028091AB02982B21F030
:103370003093A4022093A3029091AC028091AD02FD
:10338000982B21F03093A2022093A10288EA92E0C8
:103390000E94CE22089586E0E8EAF2E0DF011D9265
:1033A0008A95E9F71092A6021092A5021092A70240
:1033B0000895FC01828181110EC0838181110BC0AF
:1033C0008481811108C091E08581811101C090E064
:1033D000892F8170089581E0FCCFA6E0B0E0E3EF93
:1033E000F9E10C94973086E0E8EAF2E0DE0111960C
:1033F00001900D928A95E1F71092AA021092AB0209
:103400001092AC021092AD028B819C81892B89F0C5
:103410008091A3029091A4020E942524AC01909176
:10342000A6029923C9F1809108018417150608F4B2
:1034300040C08D819E81892B91F08091A102909155
:10344000A2020E942524AC019091A502992309F4BF
:1034500071C0809104018417150608F479C0BE017B
:103460006F5F7F4F88EA92E00E945D23811105C063
:1034700088EA92E00E94D91981110E942D1986E0F4
:10348000FE013196A8EAB2E001900D928A95E1F72B
:103490002696E3E00C94B330209109018AE0289F3E
:1034A000900111242417350720F69F5F9093A60200
:1034B00002C09F3FD1F71B81112359F00E94E317EF
:1034C0009FEF11160CF491E0899F802D11248093B9
:1034D000AA021C81112359F00E94E3179FEF1116D5
:1034E0000CF491E0899F802D11248093AB023091E0
:1034F000AA02332309F49DCF2091AB02222309F4C1
:1035000098CF45EB3403C0011124992359F09093CF
:10351000AA0245EB240390011124332339F03093A0
:10352000AB0287CF81E08093AA02F3CF81E0809342
:10353000AB027FCF209105018AE0289F90011124E2
:103540002417350708F08BCF9F5F9093A50202C028
:103550009F3FD1F71D81112359F00E9421189FEF41
:1035600011160CF491E0899F802D11248093AC02F8
:103570001E81112359F00E9421189FEF11160CF49F
:1035800091E0899F802D11248093AD023091AC028F
:10359000332309F464CF2091AD02222309F45FCFD5
:1035A00045EB3403C0011124992359F09093AC02E8
:1035B00045EB240390011124332339F03093AD02FD
:1035C0004ECF81E08093AC02F3CF81E08093AD02D7
:1035D00046CF86E090E00E94CC300895682F86E0C8
:1035E00090E00E94DA300895E2EEF2E0808184708B
:1035F000896180830E94EE1A08950E948D128111C4
:1036000004C00E943A130E94F41A0E94E91A80939F
:10361000E202803220F0877088618093E20290910C
:10362000E202892F817090FF04C0892F86958695CC
:1036300086950E94701C08958091E202982F9695BD
:1036400096959695933040F49F5F990F990F990F37
:103650008770892B8093E2028091E20281608093DF
:10366000E2020E94EE1A80919D0280FF11C08091BB
:10367000E2028695869586951F928F938EE394E05D
:103680009F938F930E9461070F900F900F900F9060
:103690008091E2028695869586950E94701C089519
:1036A0008091E202982F987F79F088508093E2020F
:1036B000887F91E009F490E08091E20290FB80F92C
:1036C0008093E2020E94EE1A80919D0280FF11C059
:1036D0008091E2028695869586951F928F9386E269
:1036E00094E09F938F930E9461070F900F900F902B
:1036F0000F908091E2028695869586950E94701CB7
:1037000008958091E20280FD1FC081608093E202F3
:10371000813019F489E08093E2028091E2020E94F4
:10372000EE1A80919D0280FF08C08EEF93E09F9378
:103730008F930E9461070F900F908091E20286950F
:10374000869586950E94701C08958091E20280FF04
:1037500014C08E7F8093E2020E94EE1A80919D0237
:1037600080FF08C08BEE93E09F938F930E946107C8
:103770000F900F9080E00E94701C0895CF93C0912D
:10378000E202C17080919D0280FF0CC01F92CF9316
:1037900080E194E09F938F930E9461070F900F90B8
:1037A0000F900F90CC2321F00E94A51BCF9108957C
:1037B0000E94811BFBCF9091E202892F869586950E
:1037C00086958F5F8F719770843088F5880F880F8A
:1037D000880F892B8093E2028091E202887F91E03A
:1037E00009F490E08091E20290FB80F98093E2027C
:1037F0000E94EE1A80919D0280FF11C08091E2022A
:103800008695869586951F928F9387ED93E09F937B
:103810008F930E9461070F900F900F900F908091EF
:10382000E2028695869586950E94701C0895909375
:10383000E202D2CF843008F083E09091E2029770E8
:10384000282F220F220F220F922B9093E202987FB3
:1038500021E009F420E09091E20220FB90F990939E
:10386000E2020E94701C08950E941A1C8091E202DC
:103870000E94EE1A08959C01FB018281882349F180
:103880002E3BFCE53F07C9F040F42C3BECE53E073E
:1038900069F02D3B3C4579F00895203C9CE53907C3
:1038A00091F070F0213C3C4589F0089583E00E943E
:1038B000341C80E0089580E0FACF0E94501BF9CFBD
:1038C0000E941C1BF6CF0E94BE1BF3CF0E94DB1B85
:1038D000F0CF81E00895279A2F9808952F980895A2
:1038E0008F929F92AF92BF92EF92FF920F931F938E
:1038F000CF93DF93C82F8430C0F5811137C08091FA
:103900008000877F809380000E946E1CA0918600BB
:10391000B09187002C2F30E00E946E3023E030E021
:1039200040E050E00E94463089019A018091860073
:10393000909187006CE070E00E941E306017710764
:10394000D8F0C80169E070E00E941E3070938D00CD
:1039500060938C00DF91CF911F910F91FF90EF90BA
:10396000BF90AF909F908F900895C3E080918000AA
:10397000886080938000CACF8091860090918700F4
:10398000E0908600F0908700E0918600F09187003B
:10399000C6E0D0E0BE010E941E30060F171F211D99
:1039A000311D4801590185E0880C991CAA1CBB1CDB
:1039B0008A95D1F7C701BE010E941E309F0150E0D9
:1039C00040E0260F371F411D511DC501B4010E9463
:1039D000463049015A01E0918600F0918700CA0102
:1039E000B9010E9402309B01AC01DF010E947D30D1
:1039F0009B01AC01C501B4010E9402302FE09695F5
:103A00008795779567952A95D1F700918600109153
:103A1000870030E020E0061717072807390708F06D
:103A200095CF609186007091870090CF08950E9495
:103A30006B1C8AE08093800089E1809381008FEF86
:103A40009FEF90938700809386000E94FD1A08954F
:103A5000CF93DF93EC01FB018281882309F433C10A
:103A6000C430FDE5DF07C0F5CB3F9CE5D90730F456
:103A70009E0122503C4524313105B0F50E94A2122E
:103A80009093D1028093D002C1318CE5D80709F41C
:103A9000EEC008F069C0C930ECE5DE0709F4D5C016
:103AA000C8F5C5308CE5D80709F4C7C000F5C330A8
:103AB000ECE5DE0709F4B9C008F0BBC0C230DC4554
:103AC00009F4ADC08091D0029091D1020E94B01251
:103AD0000E948C0C80E008C0C236EDE5DE0771F272
:103AE000C63AFDE5DF0751F2DF91CF91089580914D
:103AF000D0028062C7309CE5D90709F493C0809159
:103B0000D0028061C830DC4508F48CC08091D002BE
:103B1000806488C08091D0028B7FCD30FCE5DF07C8
:103B200009F480C098F48091D0028E7FCB309CE560
:103B3000D90709F477C08091D0028C60CC30DC4585
:103B400008F470C08091D0028D7F6CC08091D0024B
:103B50008F7ECF30FCE5DF0709F464C008F47BC03A
:103B60008091D0028F7D5EC0CE3F9CE5D90709F4DD
:103B70007AC050F5C531FCE5DF0709F486C098F43A
:103B80008091D002837FC3319CE5D90709F44AC0F4
:103B900008F471C00E948C0C9091D002892F97FB81
:103BA00087F980583FC0CC3FFCE5DF0709F449C0E6
:103BB00008F055C08091D1028160CB3FDC4509F00F
:103BC00081CF8093D1027ECFC230EDE5DE0709F4CC
:103BD00068C0A8F4C1158DE5D80709F452C08091DA
:103BE000D1028360C130DD4560F38091D102982F0E
:103BF000909591708E7F892B90FB81F9E2CFC23630
:103C0000EDE5DE0709F451C0C63AFDE5DF0709F42A
:103C100053C0C330DD4509F055CF80E043C08091EB
:103C2000D00281608093D0024DCF8091D00282601B
:103C3000F9CF8091D0028460F5CF8091D002886066
:103C4000F1CF8091D1028260BCCF0E948C0C809118
:103C5000D0028068E7CF8091D002877FE3CF809148
:103C6000D1028E7FAECF8091D1028D7FAACF80917D
:103C7000D0028F7BD7CF0E948C0C8091D0028F779F
:103C8000D1CF8091D1028C7F9CCF8091D00282FBDA
:103C9000992790F921E0922790FB82F990FB83F914
:103CA000C1CF81E00E943D130DCF9091D002892FAA
:103CB0008F7E94FF8061B6CF9091D002892F8E7F46
:103CC00090FF8160AFCF81E00FCF809102011F9202
:103CD0008F93809103011F928F93809106011F9211
:103CE0008F93809107011F928F93809108011F92FB
:103CF0008F93809109011F928F9386E594E09F93A3
:103D00008F930E9461078DB79EB70E960FB6F894F9
:103D10009EBF0FBE8DBF0895883228F58E3108F002
:103D200072C08B3041F130F4873009F4CFC085EB9D
:103D300095E0E0C0833109F45FC08431C1F787EDBD
:103D400095E00E94C8068091B202882309F4FEC063
:103D50001092B2021092B1021092B0021092AF0211
:103D60001092AE0220C08F3409F4C7C0D8F5893252
:103D700031F38833E1F68AED95E00E94C8060E948F
:103D8000651E1F9281E08F931F9288E08F9383EDD1
:103D900094E09F938F930E9461070F900F900F9074
:103DA0000F900F900F902091B202222309F4C9C006
:103DB0008091AE029091AF02009711F486E991E0F4
:103DC0009F938F931F922F9383EA95E09F938F93F6
:103DD0000E9461070F900F900F900F900F900F901F
:103DE00081E00895813509F49CC008F49CC08235B7
:103DF00009F09DCF81E082C089EC95E00E94C80661
:103E00000E94651ED0CF8D518093B202833009F499
:103E100042C058F48130C1F08230A1F11092B20258
:103E200086EC95E00E94C8061BC0853009F445C0A9
:103E3000D8F1863099F782E091E09093B1028093B7
:103E4000B0028EED91E008C089E091E09093B1025C
:103E50008093B0028AE991E09093AF028093AE0222
:103E60008091B202882309F49ECF1F928F9382EC37
:103E700095E09F938F930E9461070F900F900F9092
:103E80000F9091CF88E091E09093B1028093B002BF
:103E900083EA91E0E1CF87E091E09093B1028093D3
:103EA000B0028FEA91E0D8CF86E091E09093B10222
:103EB0008093B0028CEB91E0CFCF83E091E09093C0
:103EC000B1028093B0028BEC91E0C6CF81E0809389
:103ED000090184E1809308018AE0809307018EE163
:103EE0008093060188E08093030188E280930201B9
:103EF00088EB95E00E94C80656CF8AE0E091B002B8
:103F0000F091B1023097D1F02081082E000C990B6E
:103F1000820F911D8F3F910541F03CF08FEF808320
:103F200007C08FEFEBCF86EFE9CF97FFF8CF108276
:103F300080811F928F938FEA95E09BCF8CEA95E06A
:103F4000D9CF8FE995E00E94C8064ACF80E0089556
:103F5000CF93C82F1F928F9380EF95E09F938F93FD
:103F60000E94610761E070E080E090E004C0660FAD
:103F7000771F881F991FCA95D2F70E94DA0C0E94FA
:103F80008C0C0F900F900F900F90CF910895EF929F
:103F9000FF920F931F93CF93DF938B3109F41BC1D3
:103FA00008F0BBC08B3009F4D7C008F099C0863048
:103FB00009F4E5C048F4853009F4BDC080E69AE014
:103FC0000E94C80680E0EBC0873009F4EDC088305D
:103FD000A9F70E949D121F928F9383E49AE09F930A
:103FE0008F930E9461070E94981283FB992790F992
:103FF0001F929F9382FB992790F91F929F9381FBB9
:10400000992790F91F929F93982F91701F929F93D9
:104010001F928F938AEF99E09F938F930E9461077D
:104020000E94A21287FB222720F91F922F9386FB62
:10403000222720F91F922F9385FB222720F91F9218
:104040002F9384FB222720F91F922F9383FB222793
:1040500020F91F922F9382FB222720F91F922F9382
:1040600091FB222720F91F922F93292F21701F9255
:104070002F9381FB222720F91F922F93282F217045
:104080001F922F939F938F9385E199E09F938F9336
:104090000E9461078DB79EB788960FB6F8949EBFB1
:1040A0000FBE8DBF0E94E91A982F9695969596950A
:1040B0001F929F93982F91701F929F931F928F939F
:1040C00082EE98E09F938F930E9461078DB79EB711
:1040D00008960FB6F8949EBF0FBE8DBF81E05FC0FB
:1040E000803109F490C080F48E3009F067CF909150
:1040F0009D02892F8B7F92FF846080939D0282FFB7
:104100007FC08BE89AE073C0863109F48CC0893196
:1041100009F054CF80E696E021C08A3249F190F44C
:10412000873211F128F48E3108F448CF8D511DC02B
:10413000893209F043CF8EEC9AE00E94C8060E94B3
:10414000CE07CCCF833468F48A3308F091C085332E
:1041500059F0883309F032CF8FE397E00E94C80608
:10416000BDCF833409F02ACF80E00E94A81FB6CFCC
:104170008EEE9AE00E94C8060E943A13AFCF80915B
:104180009D02807F80939D0288E197E00E94C8068F
:104190008AEE9AE00E94C80681E08093B302CDB710
:1041A000DEB7E6E00C94B03090919D02892F8E7FAF
:1041B00090FF816080939D0280FF03C082EC9AE0B3
:1041C000CDCF85EB9AE00E94C80680919D02817F49
:1041D00080939D0283CF90919D02892F8D7F91FFC7
:1041E000826080939D0281FF08C088EA9AE00E9465
:1041F000C80680919D028160EBCF8AE99AE0AECF3C
:104200008BE79AE0ABCF90919D02892F877F93FF38
:10421000886080939D0283FF03C08FE69AE0E7CF1A
:1042200082E69AE09BCF0E941924162F072FF82EC2
:10423000E92ED091CF02C09122010E947D22EF92FF
:10424000FF920F931F931F92DF931F92CF931F92A2
:104250008F9385EF95E09F938F930E9461078DB7B1
:104260009EB70C960FB6F8949EBF0FBE8DBF36CF8B
:1042700089537BCF80E008950E943A210895CF931F
:10428000C82F8091B3028130C1F0882339F0823089
:1042900009F444C01092B30280E00DC00E948C115A
:1042A0008232D1F78C2F0E943A2181111BC08C2FB2
:1042B0000E94C71F8170CF9108950E948C11823295
:1042C00089F38C2F0E943C2181111BC0C431D9F08D
:1042D00060F4CB3071F0C031D1F08AEE95E00E94ED
:1042E000C80613C081E090E0E5CFC93261F0C83361
:1042F000A1F788E197E00E94C8068CEE95E00E9445
:10430000C80681E0D7CF1092B30280E0D3CF82E01D
:104310008093B30288E30E948C1EF3CF8C2F0E94FF
:104320008C1E81E0C8CFCF93DF93EB0186319C4593
:1043300011F50E948C119A81992399F08A7A91E063
:1043400009F490E09093B402811109C089E20E94BF
:1043500064110E94CD1180E0DF91CF91089585E333
:10436000F6CF8091B402811104C089E20E946C11E1
:10437000F0CF85E3FBCF81E0EFCF0F931F93CF9377
:10438000DF93C42FD22FFC0182818823C9F0409390
:10439000B7020E940D249093B6028093B50280E28A
:1043A0008C0F883040F4C77081E001C0880FCA9537
:1043B000EAF70E94130ADF91CF911F910F910895A0
:1043C0001091B702141332C08091B5029091B602D9
:1043D0000E942524883C910548F5C0E2CD0F1D17A9
:1043E000B9F080E2810F883040F4177081E001C09D
:1043F000880F1A95EAF70E941A0AC83048F481E03B
:104400009D2F977001C0880F9A95EAF70E94130AB2
:10441000802F0E940A0AC83070F6D77081E001C070
:10442000880FDA95EAF70E941A0AC5CF80E28C0F4E
:10443000883008F6C77081E001C0880FCA95EAF796
:10444000F2CF0F939C01CB01243F4CE5340759F187
:10445000A8F4293DFCE53F0701F12A3D4CE534076E
:10446000D1F1283D3C4591F406E221EE41EE68EDA4
:104470007CE50E94BD2180E00F910895263FFCE578
:104480003F07E9F0B0F0273F3C45F9F0FC0182819D
:10449000882339F11092B702EFCF07E225EE45EEFF
:1044A00069ED7CE5E6CF06E221EE40EE64EF7CE5C7
:1044B000E0CF07E225EE44EE65EF7CE5DACF06E2D9
:1044C00021EE42EE66EF7CE5D4CF07E225EE46EE24
:1044D00067EF7CE5CECF08E221E045EE6AED7CE5B2
:1044E000C8CF81E0C9CF9093130280931202089540
:1044F0009093BD028093BC020895E091BC02F091BC
:10450000BD02309729F00190F081E02D09950895C2
:1045100080E00895EF92FF920F931F93CF93DF9364
:104520008C01E091BC02F091BD02309791F10280C4
:10453000F381E02D099580919D0282FF2AC080FFC2
:1045400004C087E09BE00E94C806D0E0C0E081E0A4
:10455000E82E8BE0F82E80919D0280FF0EC0F801BE
:10456000EC0FFD1F80811F928F93FF92EF920E94AC
:1045700061070F900F900F900F902196C830D105D2
:1045800051F780919D0280FF04C08FEF9AE00E9456
:10459000C806CDB7DEB7E6E00C94B030E091BC02BF
:1045A000F091BD02309739F022E0DC012C930480B9
:1045B000F581E02D099508952091BA023091BB0252
:1045C0002817390771F09093BB028093BA02E091EB
:1045D000BC02F091BD02309721F00680F781E02DFA
:1045E000099508952091B8023091B902281739072A
:1045F00071F09093B9028093B802E091BC02F091FF
:10460000BD02309721F00084F185E02D09950895D1
:104610009C012E5F3F4FAC01485F5F4F80E0241745
:10462000350709F40895F90191919F019923B9F390
:104630008F5FF5CF662349F0FC01329608962191F1
:10464000261729F0E817F907D1F780E0089581E0EF
:1046500008959C01FC0132969FEF80E0419146173E
:1046600051F09F3F19F4411101C0982F8F5F8630A0
:10467000A9F79F3F09F40895290F311D97FD3A9539
:10468000F90162830895FC01329608962191261360
:1046900003C0DF0111971C92E817F907B9F70895D5
:1046A0000E94292308950E9443230895029626E03C
:1046B000FC0111922A95E9F7089546E050E00E9426
:1046C000BF3021E0892B09F420E0822F089508955E
:1046D0000E9467230895811106C081E08093BE0285
:1046E0000E946823089582E0F9CF83E08093BE02A0
:1046F0000E94682308950E946B23089581E08093AF
:10470000BE020E94682308950E947E2308950895A2
:1047100008950E9488230895089508950E9487238C
:104720000895CF930E948C230E944E170E948D23E0
:10473000C0E08C2F0E944316892B31F4CF5FC43028
:10474000C1F780E0CF91089581E0FCCF85B7806804
:1047500085BF85B7806885BF08951F921FB61F92D9
:1047600011248F939F93AF93BF938091BF028111C8
:1047700013C08091E3029091E402A091E502B09110
:10478000E6024196A11DB11D8093E3029093E402DD
:10479000A093E502B093E602BF91AF919F918F91F4
:1047A0001F901FBE1F9018958091D803843031F15F
:1047B0000E9447081092BF0288E190E020E40FB603
:1047C000F894A895809360000FBE2093600083B793
:1047D000817F846083BF83B7816083BF789488952D
:1047E00083B78E7F83BF0FB6F894A8958091600041
:1047F000886180936000109260000FBE08950E944F
:104800008C0C0E944F08089582E084BD93E095BD12
:104810009AEF97BD80936E0008952FB7F89480911A
:10482000E3029091E402A091E502B091E6022FBF6D
:1048300008952FB7F8946091E3027091E40280919B
:10484000E5029091E6022FBF08959C014FB7F894BE
:104850008091E3029091E402A091E502B091E6021A
:104860004FBF821B930B089578941F921FB61F921F
:1048700011248F939F93AF93BF938091E302909104
:10488000E402A091E502B091E6020196A11DB11DDE
:104890008093E3029093E402A093E502B093E602D2
:1048A000BF91AF919F918F911F901FBE1F90189540
:1048B00081E08093E00080E28093D8001092C900EC
:1048C0008FE19EE40197F1F700C0000087E090EBD4
:1048D000DC018093E1039093E203A093E303B093A0
:1048E000E40388E19CE00FB6F894A89580936000FB
:1048F0000FBE90936000FFCF88E19CE00FB6F89464
:10490000A895809360000FBE90936000FFCF881F32
:104910008827881F089591E0883F08F490E0892F48
:104920000895982F907F903BE9F040F49039D1F0B2
:10493000903AC1F09038B1F080E00895903D19F0C0
:1049400020F4903CC9F782E00895903E59F0903FE2
:1049500099F7815F8F3080F7E82FF0E0ED50FE4F40
:104960008081089583E00895FC0173836283089534
:10497000FC01758F648F0895CF93DF93EC011DA226
:104980001FA21EA2BC01685D7F4F40EC88519F4F63
:104990000E94AC261B821A821D821C821F821E82EC
:1049A000198618861B861A861D861C861F861E86FB
:1049B000198A188A1B8A1A8A1D8A1C8A1F8A1E8ACB
:1049C000198E188E1B8E1A8E1D8E1C8E1F8E1E8E9B
:1049D00019A218A2DF91CF910895EF92FF920F9341
:1049E0001F93CF93DF93EA018A01060F111D8851AF
:1049F0009F4F7C01C017D10729F4CDB7DEB7E6E0A1
:104A00000C94B0306991C7010E94B326F3CFFC012A
:104A1000718360830895FC0171A360A30895A3E0EE
:104A2000B0E0E5E1F5E20C9490307C016B01142FCD
:104A3000B22EA02EDC0195968C919597843059F575
:104A40005A96ED91FC91309799F1CB01019763E073
:104A500070E00E941E30CB01880F991F860F971FB0
:104A60004983BA820B834C2D481B9E012F5F3F4F19
:104A7000BC01C7010995D7015E96ED91FC91309775
:104A800031F00A2D2B2D412FB601C7010995239630
:104A9000EAE00C94AC306230710509F455C0633023
:104AA000710599F06130710509F481C0D12CC12CD8
:104AB000D7015C96ED91FC913097E9F20A2D2B2DF0
:104AC000412FB601C7010995D6CF842F807F803A48
:104AD00011F148F48038D1F0803951F7D70114969C
:104AE000ED91FC910AC0803ED9F0803FF1F0803B0F
:104AF000F9F6D7011296ED91FC913097C9F2123F69
:104B0000E9F02A2D4B2D612F6F701BC0D70116962F
:104B1000ED91FC91F2CFD7011896ED91FC91EDCF7C
:104B2000D7011A96ED91FC91E8CF423F09F6D701E3
:104B30001C96ED91FC91309709F4BACF2A2D4B2D9C
:104B400062EFC701099597CF842F807F803DB1F038
:104B5000803FC9F0803C09F0ABCFD7011E96ED91A4
:104B6000FC91309709F4A4CF812F8D7F4B2D612FBD
:104B70006F70813F89F0C70109957DCFD7015096AD
:104B8000ED91FC91EECF433F51F4D7015296ED9158
:104B9000FC91309709F48CCF4B2D612FECCF413F26
:104BA00009F086CFD7015496ED91FC91F2CF842F76
:104BB0000E948B24882359F0D7015696ED91FC91E1
:104BC000309709F475CF612FC701099554CF163F6F
:104BD00009F06ECFD7015896ED91FC91F1CFFF927D
:104BE0000F931F93CF93DF93EC01162F862F0E9414
:104BF0008B24882389F0FDA081E08DA300E020E0D4
:104C0000412F61E070E0CE010E940F25FDA2CDB7DB
:104C1000DEB7E5E00C94B130812F0E9487244DA1CE
:104C2000882309F443C0443029F01AA381E090E0BE
:104C30009FA38EA3812F0E949124813051F088235D
:104C4000A9F0823089F0833079F01DA21FA21EA244
:104C5000DECF8DA300E020E0412F61E070E0CE01C7
:104C60000E940F251DA2D3CF8DA3D1CF103FB1F04D
:104C7000173F59F72EA13FA1C90163E070E00E94E0
:104C80001E30FE01E80FF91F12A3B9016F5F7F4FBD
:104C90007FA36EA30CA12BA14AA1E1CF84E08DA339
:104CA0001AA381E090E09FA38EA3B1CF442309F41F
:104CB000AECF2EA13FA1C90163E070E00E941E307B
:104CC000FE01E80FF91F12A3B9016F5F7F4F7FA3A9
:104CD0006EA38130910569F0029709F098CF0CA17D
:104CE0002BA14AA1CE010E940F258DA18430C9F6C7
:104CF0008ECF423009F08BCF00E0F2CFB0E0A0E0E1
:104D0000E4E8F6E20C949230EC01E8A1F9A13097C6
:104D100009F009956E0188EEC80ED11CC6010E94EB
:104D2000E22610E000E0E82EF12C0E151F0528F019
:104D3000CDB7DEB7E8E00C94AE3060E0C6010E946B
:104D4000F626682FCE010E94EF2561E0C6010E9481
:104D500006270F5F1F4FE9CFFC01428374836383F3
:104D60001182108208951F93CF93DF93EC01162FC9
:104D70000E941E27482F298130E0C90101966A81CF
:104D800070E00E94323058815817190641F4842F80
:104D90000E94212780E0DF91CF911F9108958B81A0
:104DA0009C81280F391FF9011083898190E00196B9
:104DB0006A8170E00E9432308983842F0E9421270B
:104DC00081E0E9CFCF93DF93EC010E941E27998108
:104DD0002881921740F0C92FC21B0E9421278C2FD7
:104DE000DF91CF910895CA819C0FF5CFFC0180819E
:104DF000860F9927991F628170E00E9432302381CB
:104E00003481280F391FF901808108951F93CF93B2
:104E1000DF93EC01162F0E941E27282F8881810F17
:104E20009927991F6A8170E00E9432308883822F0F
:104E30000E942127DF91CF911F9108958FB7F89499
:104E400008958FBF089508950895A7E0B0E0EBE2BC
:104E5000F7E20C9496308C01CE0101960E94662AEE
:104E6000811104C02796E4E00C94B2308A810E943C
:104E700091249A819D839B819E839C819F83811134
:104E80000AC08981843079F0873069F0863069F012
:104E9000853011F781E0AE014B5F5F4F682FC8018D
:104EA0000E94ED24D9CF83E0F6CF82E0F4CFA4E0D6
:104EB000B0E0EDE5F7E20C9493307B01142FD22E95
:104EC0004A832B830C83842F0E949124811122C05A
:104ED00082E0E816F104C9F083E0E816F10441F03D
:104EE00081E0E816F10469F485E0173F21F404C07D
:104EF00087E0073F09F084E08983CE0101960E9494
:104F0000602A2496E7E00C94AF3087EFD812F3CFF5
:104F100086E0F2CF12951F701983EFCF87EE92E0F3
:104F20000E94BC2467E577E287EE92E00E940725A5
:104F300065E277E287EE92E00E940B2563E277E27A
:104F400087EE92E00E94B82464E277E287EE92E076
:104F50000E94B42408959B014091D8034430C1F4C9
:104F6000FC0191819F709093E90050E040E064E083
:104F700070E0C9010E942D2B81110BC09091E800B7
:104F800095FD07C09091E8009E779093E800089502
:104F900082E008952091D803243099F4FC018181A6
:104FA0008F708093E9009091F3008091F200892B3B
:104FB00051F08091E8008E778093E8000E94DB2C0E
:104FC000089582E0089580E00895FC018091D8035F
:104FD000843059F491819F709093E9008091E800AA
:104FE00080FF03C0CF010E94CA2708959B01409112
:104FF000D803443011F080E00895FC0196819F7041
:105000009093E9008091E80082FFF5CF8091E8005D
:1050100085FFF1CF50E040E064E070E0C9010E94FC
:105020007C2B8091E80085FD05C08091E8008B779E
:105030008093E80081E008958091CE02089508955C
:105040009C0182E08093E9009FEF8091E8009150FD
:1050500085FD06C085ED8A95F1F700009111F5CF29
:105060008091E80085FF0CC050E040E066E070E011
:10507000C9010E942D2B8091E8008E778093E80073
:105080000895CF93DF93EC0181E08093E9008FEFE7
:105090009091E800815095FD06C095ED9A95F1F745
:1050A00000008111F5CF8091E80085FF14C050E029
:1050B00040E068E070E0CE010E942D2B8091E80076
:1050C0008E778093E80088E0FE01A6ECB2E00190C4
:1050D0000D928A95E1F7DF91CF9108958093C202F6
:1050E0007093C4026093C3028091D803843001F5A9
:1050F00082E08093E9008FEF9091E800815095FD68
:1051000006C095ED9A95F1F700008111F5CF8091D9
:10511000E80085FF0DC050E040E063E070E082EC05
:1051200092E00E942D2B8091E8008E778093E8001A
:105130000895BC0184E00E946E280895BC0183E0BC
:105140000E946E2808958DE29BE00E94C80680911F
:10515000D703811109C00E940C2D0E94692D8091F6
:10516000E20084608093E200089589E29BE00E945F
:10517000C8061092D703089585E29BE00E94C806F6
:105180000E947E23089581E29BE00E94C806609100
:10519000D40381E0611101C080E00E94752308956D
:1051A0008DE19BE00E94C8069091D80381E0943085
:1051B00009F080E06091D4030E947B230895209140
:1051C000C1022F5F822F62E30E941230992319F0EF
:1051D0002093C10208951092C1028091C5028823D4
:1051E000F1F08091D8038430C1F49091E9009F7070
:1051F0002091EC00822F817020FD80E8892B93E0C4
:105200009093E9009091EB0090FF04C09091EE0024
:1052100097FD08C08F708093E9001092C502089531
:105220001092F1009091E80095FDFACF9091E8007E
:1052300090FFF0CF9091E8009E779093E800EACF3E
:1052400042E061EC81E00E94882C42E261EC82E065
:105250000E94882C42E261EC83E00E94882C42E3A9
:1052600061E884E00E94882C42E361E885E00E94C6
:10527000882C9091D80381E0943009F080E060910F
:10528000D4030E946B2308958091DA03833009F4DC
:1052900061C030F48130D1F1823009F49EC00895AC
:1052A0008A3009F48AC08B3009F46FC0893009F064
:1052B00050C08091D903813209F04BC08091DD0349
:1052C0009091DE03029708F044C08091E800877F48
:1052D0008093E8008091E80082FF37C09091F3004E
:1052E0008091F200029731F48091F100813011F049
:1052F000863021F48091F1008093CE028091E80005
:105300008B778093E8000E94BC2C23C08091D90346
:10531000813AF9F48091E800877F8093E8008091DA
:10532000DD039091DE03892B61F468E086EC92E066
:1053300070E00E94CB2B8091E8008B778093E8008F
:10534000089560E090E080E0F3CF8091D803811170
:10535000C1CF08958091D903813AD9F78091DD03B7
:105360009091DE03892BA9F78091E800877F8093D5
:10537000E8008091E80080FFFCCF809122018093BB
:10538000F1008091E8008E77BCCF8091D903813203
:1053900001F78091DD039091DE03892BD1F6809196
:1053A000E800877F8093E8000E94BC2C8091DB039B
:1053B000809322010E948C0C08958091D903813240
:1053C00041F68091E800877F8093E8000E94BC2C22
:1053D0008091DC038093CF0208958091D903813AB4
:1053E00009F0B7CF8091E800877F8093E800809133
:1053F000E80080FFFCCF8091CF02C1CF9FB7F89427
:105400001092C5029FBF9091D803943009F048C014
:105410002091E9002F703091EC00932F917030FDB6
:1054200090E8922B23E02093E9002091EB0020FFED
:1054300034C02091EE0027FF30C02091C00222230B
:1054400021F02091E80025FF28C01092C00226E03C
:105450003091E80035FF14C08093F1008091E8009E
:1054600085FD27C08091E80080FFFCCF8091E80097
:105470008E778093E8009F709093E90080E0089514
:105480003091D803343049F43091EB0035FD05C03C
:10549000215041F481E08093C0029F709093E90015
:1054A0008FEF0895EFE9FFE03197F1F700C00000BA
:1054B000CFCF8FB7F89421E02093C5028FBFDBCF09
:1054C000BC018AE091E00E94AB270895BC018AE00C
:1054D00091E00E94F62708950E948E2784B7877F67
:1054E00084BF0FB6F894A89580916000886180937E
:1054F0006000109260000FBE80E890E00FB6F89454
:1055000080936100909361000FBE0E9484230895F0
:105510000E940C2D0E94692DE2EEF0E080818460F3
:10552000808378940E94E72F089586E191E00E949D
:10553000782208958091D803853051F489E19BE069
:105540000E94C8068091D803853019F00E94FF237D
:1055500008950E94D4238091D603882399F30E9452
:105560009123882379F30E94172B0E948C0CEACF99
:105570008AE091E00E94E52708950E94C02A0895DC
:10558000292F33272330310521F168F421303105EB
:1055900009F443C02230310509F444C090E080E0B2
:1055A00030E020E026C02132310551F122323105B0
:1055B000A9F76330710590F7FB01EE0FFF1FEB5F5A
:1055C000FD4F208131816E5F7D4FFB01808190E036
:1055D00010C099278130910581F0009729F002973A
:1055E000E9F6E1E3FBE002C0E1E5FBE0849190E055
:1055F0009F01FA01318320830895EDE3FBE0F6CFAC
:105600006330710558F6660F771FFB01E55FFD4FAC
:105610002081318189E090E0ECCF82E190E024E1CB
:105620003CE0E7CF8FEB90E025E53BE0E2CF80E187
:1056300089BD82E189BD09B400FEFDCF8091D8000B
:105640008F7D8093D8008091E00082608093E0009D
:105650008091E00081FDFCCF0895AF92BF92CF9280
:10566000DF92FF920F931F93CF93DF936C01EB01B7
:105670008A010E94DB2CF82E811123C0011511052F
:1056800039F0F80180819181C81BD90BC80ED91E51
:10569000B12CA12C2097A9F08091E80085FD22C0B3
:1056A0008091E8008E778093E80001151105A1F044
:1056B000F80180819181A80EB91EB182A08285E097
:1056C000F82E8F2DDF91CF911F910F91FF90DF90DA
:1056D000CF90BF90AF9008950E94DB2C8823D1F229
:1056E000F82EEFCFF60181916F018093F1002197A1
:1056F000FFEFAF1ABF0ACECFAF92BF92CF92DF9229
:10570000FF920F931F93CF93DF936C01EB018A01FC
:105710000E94DB2CF82E811123C00115110539F0F0
:10572000F80180819181C81BD90BC80ED91EB12CFC
:10573000A12C2097A9F08091E80085FD22C08091DE
:10574000E8008B778093E80001151105A1F0F801BE
:1057500080819181A80EB91EB182A08285E0F82EC9
:105760008F2DDF91CF911F910F91FF90DF90CF9000
:10577000BF90AF9008950E94DB2C8823D1F2F82EC1
:10578000EFCF8091F100F60181936F012197FFEF38
:10579000AF1ABF0ACECFFC018091DF039091E003E6
:1057A00086179707A0F06115710529F49091E8001C
:1057B0009E779093E80090E06115710551F4911186
:1057C00008C08091E80082FF34C080E00895BC01E9
:1057D000F2CF8091D8038823C1F18530C1F1809147
:1057E000E80083FD30C08091E80082FDEACF80911F
:1057F000E80080FFE1CF8091F3002091F200382F84
:105800006115710519F02830310558F091E0283004
:10581000310509F090E02091E8002E772093E80010
:10582000CBCF81918093F100615071092F5F3F4F81
:10583000E7CF8091D803882341F0853041F08091F3
:10584000E80083FFBECF81E0089582E0089583E001
:105850000895FC018091DF039091E003861797077C
:10586000A0F06115710529F48091E8008E7780938E
:10587000E80090E06115710551F4911108C0809124
:10588000E80082FF35C080E00895BC01F2CF80912E
:10589000D8038823C9F18530C9F18091E80083FDE0
:1058A00031C08091E80082FDEACF8091E80080FF5E
:1058B000E1CF8091F3002091F200382F611571053E
:1058C00019F02830310558F091E02830310509F001
:1058D00090E08091E8008E778093E800CBCF8491B0
:1058E0008093F1003196615071092F5F3F4FE6CFF1
:1058F0008091D803882341F0853041F08091E80001
:1059000083FFBDCF81E0089582E0089583E008958C
:10591000982F973028F08F708093E90081E00895E8
:105920009093E900242F762F50E0981731F0709172
:10593000EC002091ED005091F00021FD02C09F5F2E
:10594000E8CF3091EB003E7F3093EB003091ED00DB
:105950003D7F3093ED003091EB0031603093EB00F0
:105960007093EC002093ED005093F0002091EE0036
:1059700027FDE5CF80E008958091D90387FF13C00C
:105980008091E80082FF06C08091E8008B778093C9
:10599000E80004C08091D8038111F2CF089580916E
:1059A000D8038823D9F38091E80080FFF8CF809155
:1059B000E8008E77ECCF2091E4003091E50095E689
:1059C000A9012091EC00822F817020FF06C08091F8
:1059D000E80080FF06C080E008952091E80022FDE5
:1059E0001AC08091D803882389F0853089F080918E
:1059F000EB0085FD0FC02091E4003091E5004217D7
:105A00005307F9F29150E1F684E0089582E0089599
:105A100083E0089581E008950E947B2D0E94832DEC
:105A2000E0EEF0E0808181608083E8EDF0E080814D
:105A30008F77808319BCA7EDB0E08C918E7F8C931B
:105A400080818F7E80831092D70308950F931F93D8
:105A5000CF93DF930E947B2D0E94832DC8EDD0E071
:105A600088818F77888388818068888388818F7D0B
:105A7000888319BC1092D8031092D4031092D603D5
:105A80001092D50300EE10E0F80180818B7F8083B7
:105A900088818160888342E060E080E00E94882CF9
:105AA000E1EEF0E080818E7F8083E2EEF0E08081A5
:105AB00081608083808188608083F80180818E7F0F
:105AC0008083888180618883DF91CF911F910F91BE
:105AD0000895E8EDF0E080818F7E8083E7EDF0E0CF
